S01700004763634170706C69636174696F6E322E737265635A
S11300000C9475000C9492000C9492000C94920041
S11300100C9492000C9492000C9492000C94920014
S11300200C9492000C9492000C9492000C94920004
S11300300C9492000C9492000C940D010C94920078
S11300400C9492000C9492000C9492000C949200E4
S11300500C9492000C9492000C9492000C949200D4
S11300600C9492000C94920007634236B79BD8A775
S11300701A39685618AEBAAB558C1D3CB7CC5763C9
S1130080BD6DEDFD753EF6177231BF000000803F77
S113009008000000BE922449123EABAAAA2ABECD93
S11300A0CCCC4C3E00000080BEABAAAAAA3E000005
S11300B00000BF000000803F0000000000084178FD
S11300C0D3BB4387D1133D190E3CC3BD4282AD2B34
S11300D03E68EC8276BED98FE1A93E4C80EFFFBE2C
S11300E001C4FF7F3F000000000011241FBECFEFBA
S11300F0D8E0DEBFCDBF11E0A0E0B1E0E0E6FAE079
S113010002C005900D92A431B107D9F721E0A4E112
S1130110B1E001C01D92A831B207E1F70E9494003A
S11301200C942E050C94000087B1886087B987B1C0
S1130130806187B987B1806287B98AB180618AB9E1
S11301408AB180628AB98AB180648AB98AB18068C6
S11301508AB984B5826084BD85B5846085BD87B560
S11301608D6487BDEEE6F0E08081826080837894C0
S11301702FEF80E792E0215080409040E1F700C0EB
S11301800000809116019091170101969093170138
S113019080931601EDCF9BB1906F9BB99BB147E063
S11301A050E0461B510921E030E002C0220F331F0A
S11301B04A95E2F7209529232BB998B1977F98B9EE
S11301C098B19F7D98B997E01FC0E82FF0E0EE0F3B
S11301D0FF1FE050FF4F408121E030E0092E02C0B4
S11301E0220F331F0A94E2F7242321F028B120615F
S11301F028B903C028B12F7E28B928B1286028B9AE
S113020028B1277F28B991509923FCF688B18062E0
S113021088B988B18F7D88B908951F920F920FB65F
S11302200F9211242F933F934F935F936F937F9378
S11302308F939F93AF93BF93EF93FF9360911401B8
S11302407091150180E090E00E94AC019B01AC012B
S113025060E070E080E291E40E9412020E947D015D
S1130260AB01BC018091160190911701BA010E9463
S11302700B05462F372F262FADECBCEC0E941F0533
S11302809695879596958795969587959C01220FC7
S1130290331F880F991F880F991F880F991F820F8A
S11302A0931F6091140170911501481B842F0E94C3
S11302B0CB00809114019091150101969093150142
S11302C0809314018091140190911501049721F4F5
S11302D01092150110921401FF91EF91BF91AF910B
S11302E09F918F917F916F915F914F913F912F914A
S11302F00F900FBE0F901F9018950E94F10188F087
S11303009F5798F0B92F9927B751B0F0E1F0660FD5
S1130310771F881F991F1AF0BA95C9F714C0B13016
S113032091F00E940B02B1E008950C940B02672F28
S1130330782F8827B85F39F0B93FCCF38695779545
S11303406795B395D9F73EF490958095709561952E
S11303507F4F8F4F9F4F0895E89409C097FB3EF459
S113036090958095709561957F4F8F4F9F4F9923FE
S1130370A9F0F92F96E9BB279395F695879577957C
S11303806795B795F111F8CFFAF4BB0F11F460FF3C
S11303901BC06F5F7F4F8F4F9F4F16C0882311F094
S11303A096E911C0772321F09EE8872F762F05C0A8
S11303B0662371F096E8862F70E060E02AF09A9543
S11303C0660F771F881FDAF7880F9695879597F938
S11303D0089557FD9058440F551F59F05F3F71F031
S11303E04795880F97FB991F61F09F3F79F0879598
S11303F00895121613061406551FF2CF4695F1DF21
S113040008C0161617061806991FF1CF86957105B0
S1130410610508940895E894BB2766277727CB01E4
S113042097F90895FA01EE0FFF1F30962105310563
S1130430A1F16115710561F48038BFE39B0749F1AF
S113044068949038810561F08038BFEF9B0741F0D4
S113045099234AF5FF3FE1053105210519F1E89497
S11304600894E795D901AA2329F4AB2FBE2FF85F8E
S1130470D0F310C0FF5F70F4A695E0F7F73950F0A1
S113048019F0FF3A38F49F779F930DD00F9007FC33
S11304909058089546F00C94A20260E070E080E861
S11304A09FE308954FE79F775F934F933F932F9375
S11304B00E9416032F913F914F915F910E949203E6
S11304C00C946A0229F416F00C949C020C940B020E
S11304D00C94A2020E94F101A8F39638A0F707F841
S11304E00F92E8942BE33AEA48EB5FE70E94A803F3
S11304F00F920F920F924DB75EB70F920E945E0358
S1130500E8E6F0E00E94A5024F915F91EF91FF9120
S1130510E595EE1FFF1F49F0FE57E0684427EE0FF4
S1130520441FFA95E1F74195550B0E94D8020F90AC
S113053007FE0C94CC02089597F99F6780E870E059
S113054060E008959FEF80EC0895DF93CF931F93AD
S11305500F93FF92EF92DF927B018C01689406C0A7
S1130560DA2EEF010E94A503FE01E894A5912591DE
S1130570359145915591A6F3EF010E941704FE01B0
S11305809701A801DA9469F7DF90EF90FF900F913B
S11305901F91CF91DF9108959B01AC0160E070E061
S11305A080E89FE30C946C040C949C020C94DE048D
S11305B00E94F101D8F39923C9F3940F511DA3F3B9
S11305C09150504094F059F0882332F0660F771F11
S11305D0881F91505040C1F79E3F51052CF7880F5A
S11305E0911D9695879597F908955F3FACF0983ED5
S11305F09CF0BB27869577956795B79508F4B1600D
S11306009395C1F7BB0F58F711F460FFE8CF6F5F04
S11306107F4F8F4F9F4FE3CF0C940C0216F00C9436
S1130620DE040C94A20268940C949C020E94F101D2
S1130630A8F39923C1F3AEF3DF93CF931F930F93E2
S1130640FF92C92FDD2788232AF02197660F771F91
S1130650881FDAF720E030E040E85FEB9FE3883959
S113066020F0803E38F021968F770E940004E0E964
S1130670F0E004C00E940004EDEBF0E00E94A5024B
S11306808B01BE01EC01FB2E6F5771097595771F25
S1130690880B990B0E94AE0128E132E741E35FE346
S11306A00E94A503AF2D9801AE01FF900F911F91F9
S11306B0CF91DF910E9417040C94FA04FA01DC0133
S11306C0AA0FBB1F9B01AC01BF5728F42227332775
S11306D04427507820C0B75190F4AB2F002446959E
S11306E037952795011CA395D2F3002071F0220FB2
S11306F0331F441FB395DAF30ED00C94FF0361301B
S11307007105A0E88A07B94630F49B01AC0166275D
S1130710772788279078309621F02083318342838D
S1130720538308950E94A5030C94FA040E94EC04D8
S113073038F00E94F30420F0952311F00C949C02ED
S11307400C94A20211240C940C020E94E90170F38F
S1130750959FC1F3950F50E0551F629FF001729F62
S1130760BB27F00DB11D639FAA27F00DB11DAA1F71
S1130770649F6627B00DA11D661F829F2227B00DBE
S1130780A11D621F739FB00DA11D621F839FA00D49
S1130790611D221F749F3327A00D611D231F849F99
S11307A0600D211D822F762F6A2F11249F575040F0
S11307B09AF0F1F088234AF0EE0FFF1FBB1F661F6B
S11307C0771F881F91505040A9F79E3F510580F034
S11307D00C949C020C940C025F3FE4F3983ED4F317
S11307E0869577956795B795F795E7959F5FC1F7D8
S11307F0FE2B880F911D9695879597F9089550586B
S1130800BB27AA270E9417040C94FA040E94EC0444
S113081038F00E94F30420F039F49F3F19F426F4D1
S11308200C94A2020EF4E095E7FB0C949C02E92FD1
S11308300E94E90158F3BA17620773078407950702
S113084020F079F4A6F50C940B020EF4E0950B2E2F
S1130850BA2FA02D0B01B90190010C01CA01A0010E
S11308601124FF27591B99F0593F50F4503E68F169
S11308701A16F040A22F232F342F4427585FF3CFAA
S1130880469537952795A795F0405395C9F77EF47B
S11308901F16BA0B620B730B840BBAF09150A1F0C4
S11308A0FF0FBB1F661F771F881FC2F70EC0BA0F4A
S11308B0621F731F841F48F4879577956795B795D2
S11308C0F7959E3F08F0B0CF9395880F08F09927CD
S11308D0EE0F9795879508950E9480040C94FA046E
S11308E00E94F30458F00E94EC0440F029F45F3FA6
S11308F029F00C949C0251110C940C020C94A20249
S11309000E94E90168F39923B1F3552391F3951BF0
S1130910550BBB27AA2762177307840738F09F5F1C
S11309205F4F220F331F441FAA1FA9F335D00E2E89
S11309303AF0E0E832D091505040E695001CCAF7F6
S11309402BD0FE2F29D0660F771F881FBB1F2617B9
S113095037074807AB07B0E809F0BB0B802DBF0190
S1130960FF2793585F4F3AF09E3F510578F00C945F
S11309709C020C940C025F3FE4F3983ED4F38695FA
S113098077956795B795F7959F5FC9F7880F911D80
S11309909695879597F90895E1E0660F771F881F6C
S11309A0BB1F621773078407BA0720F0621B730B1F
S11309B0840BBA0BEE1F88F7E09508959F3F31F042
S11309C0915020F4879577956795B795880F911D79
S11309D09695879597F9089500240A941616170694
S11309E018060906089500240A941216130614061C
S11309F005060895092E0394000C11F4882352F07F
S1130A00BB0F40F4BF2B11F460FF04C06F5F7F4F36
S1130A108F4F9F4F0895AA1BBB1B51E107C0AA1F0C
S1130A20BB1FA617B70710F0A61BB70B881F991F8B
S1130A305A95A9F780959095BC01CD010895A29F80
S1130A40B001B39FC001A39F700D811D1124911D9E
S1130A50B29F700D811D1124911D0895F894FFCF4C
S1130A603F0006005B004F0066006D007D0007003C
S1070A707F006F0090
S9030000FC
