:100000000C9434000C9449000C9449000C94490061
:100010000C9449000C9449000C9449000C9449003C
:100020000C9449000C9449000C9449000C9449002C
:100030000C9449000C9449000C9449000C9449001C
:100040000C9449000C9449000C9449000C9449000C
:100050000C9449000C9449000C9449000C944900FC
:100060000C9449000C94490011241FBECFEFD8E036
:10007000DEBFCDBF11E0A0E0B1E0E8E9F1E002C0F1
:1000800005900D92A431B107D9F70E948C000C9411
:10009000CA000C9400009BB1906F9BB99BB170E0BB
:1000A0006C5F7F4F21E030E002C0220F331F6A9562
:1000B000E2F7209529232BB998B1977F98B998B189
:1000C0009F7D98B997E01FC0E82FF0E0EE0FFF1F6B
:1000D000E050FF4F408121E030E0092E02C0220FA6
:1000E000331F0A94E2F7242321F028B1206128B9B4
:1000F00003C028B12F7E28B928B1286028B928B1BB
:10010000277F28B991509923FCF688B1806288B97D
:1001100088B18F7D88B9089587B1886087B987B124
:10012000806187B987B1806287B98AB180618AB9F5
:100130008AB180628AB98AB180648AB98AB18068DA
:100140008AB960E081E00E944B0087E893E1019763
:10015000F1F700C0000061E082E00E944B0087E8F8
:1001600093E10197F1F700C0000062E083E00E9494
:100170004B0087E893E10197F1F700C0000063E0CE
:1001800084E00E944B0087E893E10197F1F700C0FB
:080190000000D7CFF894FFCF67
:100198003F0006005B004F0066006D007D00070011
:0401A8007F006F0065
:00000001FF
