:100000000C943E000C9450000C9450000C94520040
:100010000C9450000C9450000C9450000C94500020
:100020000C9450000C9450000C9450000C94500010
:100030000C9450000C9450000C9409010C94500046
:100040000C9450000C9450000C9450000C945000F0
:100050000C9450000C9450000C9450000C945000E0
:100060000C9450000C945000C000C600CC00D2008C
:10007000D800DE00E400EA00F000F60011241FBE04
:10008000CFEFD8E0DEBFCDBF21E0A0E0B1E001C0FE
:100090001D92A330B207E1F70E945E000C94530159
:1000A0000C9400001F920F920FB60F921124109221
:1000B00000010F900FBE0F901F9018951092010134
:1000C0001092000181E08093020184B18F7784B99E
:1000D00084B1816084B984B1826084B98FEF87B9BB
:1000E00084B1806184B984B1816084B984B1826053
:1000F00084B984B5806484BD84B5826084BD85B5CF
:10010000846085BD87B58D6487BDE8E6F0E08081B9
:1001100081608083EBE6F0E0808180688083EEE69A
:10012000F0E08081826080837894FFCF95B1926007
:1001300095B995B1916095B9662349F09DEC899F79
:10014000812D1124E82FE695E695E6950EC0EDEC9D
:100150008E9FE12D1124E695E695E695EE0F9E2FF4
:10016000990F990FE90F8E1BE82F8E2F90E08A30A0
:10017000910508F041C0FC01EC5CFF4F0C944D016F
:100180008FE388B985B18F7E85B939C086E088B99B
:1001900085B18F7E85B933C08BE588B985B1806123
:1001A00085B92DC08FE488B985B1806185B927C034
:1001B00086E688B985B1806185B921C08DE688B9A8
:1001C00085B1806185B91BC08DE788B985B1806133
:1001D00085B915C087E088B985B18F7E85B90FC014
:1001E0008FE788B985B1806185B909C08FE688B984
:1001F00085B1806185B903C085B1806185B9662309
:1002000021F085B18E7F85B9089585B18D7F85B93F
:1002100008951F920F920FB60F9211242F933F93C0
:100220004F935F936F937F938F939F93AF93BF93FE
:10023000EF93FF9360910201809100010E9496006C
:100240009091020181E08927809302018091010150
:100250008F5F8093010180910101843669F41092CF
:100260000101809100018F5F809300018091000166
:10027000843611F410920001FF91EF91BF91AF917C
:100280009F918F917F916F915F914F913F912F91AE
:100290000F900FBE0F901F901895EE0FFF1F059047
:0A02A000F491E02D0994F894FFCFCB
:00000001FF
