:100000000C943E000C9450000C9450000C94520040
:100010000C9450000C9450000C9450000C94500020
:100020000C9450000C9450000C9450000C94500010
:100030000C9450000C9450000C9406010C94500049
:100040000C9450000C9450000C9450000C945000F0
:100050000C9450000C9450000C9450000C945000E0
:100060000C9450000C945000C600CC00D200D80074
:10007000DE00E400EA00F000F600FC0011241FBEE0
:10008000CFEFD8E0DEBFCDBF21E0A0E0B1E001C0FE
:100090001D92A330B207E1F70E945E000C9450015C
:1000A0000C9400001F920F920FB60F921124109221
:1000B00000010F900FBE0F901F9018951092010134
:1000C0001092000181E08093020184B18F7784B99E
:1000D00084B1816084B984B1826084B98FEF87B9BB
:1000E00084B1806184B984B1816084B984B1826053
:1000F00084B984B5806484BD84B5826084BD85B5CF
:10010000846085BD87B58D6487BDE8E6F0E08081B9
:1001100081608083EBE6F0E0808180688083EEE69A
:10012000F0E08081826080837894FFCF662379F04D
:1001300095B19E7F95B995B1926095B99DEC899FD7
:10014000812D1124E82FE695E695E69514C095B12A
:10015000916095B995B19D7F95B9EDEC8E9FE12D9C
:100160001124E695E695E695EE0F9E2F990F990FCF
:10017000E90F8E1BE82F8E2F90E08A30910508F052
:1001800041C0FC01EC5CFF4F0C944A018FE388B93D
:1001900085B18F7E85B9089586E088B985B18F7E57
:1001A00085B908958BE588B985B1806185B90895D1
:1001B0008FE488B985B1806185B9089586E688B9EC
:1001C00085B1806185B908958DE688B985B1806172
:1001D00085B908958DE788B985B1806185B908959D
:1001E00087E088B985B18F7E85B908958FE788B992
:1001F00085B1806185B908958FE688B985B1806140
:1002000085B9089585B1806185B908951F920F92CF
:100210000FB60F9211242F933F934F935F936F93D9
:100220007F938F939F93AF93BF93EF93FF936091CF
:100230000201809100010E9496009091020181E0EC
:10024000892780930201809101018F5F80930101D2
:1002500080910101843669F41092010180910001BE
:100260008F5F8093000180910001843611F4109219
:100270000001FF91EF91BF91AF919F918F917F917D
:100280006F915F914F913F912F910F900FBE0F9003
:100290001F901895EE0FFF1F0590F491E02D099423
:0402A000F894FFCF00
:00000001FF
