S01700004763634170706C69636174696F6E312E737265635B
S11300000C9434000C9446000C9446000C94460066
S11300100C9446000C9446000C9446000C94460044
S11300200C9446000C9446000C9446000C94460034
S11300300C9446000C9446000C9454000C94460016
S11300400C9446000C9446000C9446000C94460014
S11300500C9446000C9446000C9446000C94460004
S11300600C9446000C94460011241FBECFEFD8E038
S1130070DEBFCDBF21E0A0E0B1E001C01D92A13000
S1130080B207E1F70E944C000C9494000C94000019
S113009083B1806283B908958FEF84B917B81AB811
S11300A00E9483007894FFCF1F920F920FB60F9295
S11300B011242F933F934F935F936F937F938F9369
S11300C09F93AF93BF93EF93FF93809100018F5F52
S11300D080930001809100018A3021F41092000184
S11300E00E944800FF91EF91BF91AF919F918F9132
S11300F07F916F915F914F913F912F910F900FBE20
S11301000F901F90189584B5806484BD84B5826077
S113011084BD85B5846085BD8DE487BDEEE6F0E0E1
S10F01208081826080830895F894FFCFF2
S9030000FC
