:100000000C9434000C943E000C943E000C943E0082
:100010000C943E000C943E000C943E000C943E0068
:100020000C943E000C943E000C943E000C943E0058
:100030000C943E000C943E000C943E000C943E0048
:100040000C943E000C943E000C943E000C943E0038
:100050000C943E000C943E000C943E000C943E0028
:100060000C943E000C943E0011241FBECFEFD8E04C
:10007000DEBFCDBF0E9444000C9467000C940000CA
:1000800083B1806283B908958FEF84B917B81AB825
:100090000E9451000E945D008823E1F30E9440000D
:1000A000F9CF84B5806484BD84B5826084BD85B594
:1000B000846085BD8DE487BD089595B3892F8270D6
:1000C00091FF04C085B3826085BB81E00895F894F8
:0200D000FFCF60
:00000001FF
