S01700004763634170706C69636174696F6E312E737265635B
S11300000C9434000C943E000C943E000C943E007E
S11300100C943E000C943E000C943E000C943E0064
S11300200C943E000C943E000C943E000C943E0054
S11300300C943E000C943E000C944C000C943E0036
S11300400C943E000C943E000C943E000C943E0034
S11300500C943E000C943E000C943E000C943E0024
S11300600C943E000C943E0011241FBECFEFD8E048
S1130070DEBFCDBF0E9444000C9481000C940000AC
S113008083B1806283B908958FEF84B917B81AB821
S11300900E9470007894FFCF1F920F920FB60F92B8
S11300A011242F933F934F935F936F937F938F9379
S11300B09F93AF93BF93EF93FF930E944000FF91F0
S11300C0EF91BF91AF919F918F917F916F915F91CC
S11300D04F913F912F910F900FBE0F901F90189545
S11300E084B5806484BD84B5826084BD85B5846034
S11300F085BD8DE487BDEEE6F0E08081826080837B
S10901000895F894FFCFFE
S9030000FC
