:100000000C9434000C9451000C9451000C94510049
:100010000C9451000C9451000C9451000C9451001C
:100020000C9451000C9451000C9451000C9451000C
:100030000C9451000C9451000C9451000C945100FC
:100040000C9451000C9451000C9451000C945100EC
:100050000C9451000C9451000C9451000C945100DC
:100060000C9451000C94510011241FBECFEFD8E026
:10007000DEBFCDBF11E0A0E0B1E0E6ECF1E002C0F0
:1000800005900D92A030B107D9F721E0A0E0B1E0D2
:1000900001C01D92A030B207E1F70E94C0000C948D
:1000A000E1000C9400009093C5008093C400E1EC43
:1000B000F0E0808188608083E2ECF0E08081846001
:1000C000808380818260808308959091C00095FD37
:1000D0000BC0E0ECF0E0A3EFB1E01197F1F700C046
:1000E0000000908195FFF7CF8093C60008950F938D
:1000F0001F93CF93DF93FC01AC015695479556951E
:1001000047959A01ABE7B4E10E94D2008C011695A5
:10011000079524E6209FC001219F900D11248F0197
:10012000081B190B9A010E94D20096958795805D55
:100130000E9465009801ADECBCEC0E94D200EC017D
:10014000D695C795D695C795D695C7958C2F805DC2
:100150000E946500CE01880F991FCC0FDD1FCC0FC8
:10016000DD1FCC0FDD1FC80FD91FC8018C1B9D0BD5
:10017000805D0E946500DF91CF911F910F910895DE
:100180008CE090E00E9453008BE790E00E947700A3
:100190002FE38DE093E0215080409040E1F700C0D4
:1001A0000000F2CFA29FB001B39FC001A39F700DCA
:1001B000811D1124911DB29F700D811D1124911D6F
:0601C0000895F894FFCF42
:00000001FF
