S01600004D6963726F6368697020436F64652E73726563D5
S11300000C9434000C9451000C9451000C94510045
S11300100C9451000C9451000C9451000C94510018
S11300200C9451000C9451000C9451000C94510008
S11300300C9451000C9451000C9451000C945100F8
S11300400C9451000C9451000C9451000C945100E8
S11300500C9451000C9451000C9451000C945100D8
S11300600C9451000C94510011241FBECFEFD8E022
S1130070DEBFCDBF11E0A0E0B1E0E8ECF4E002C0E7
S113008005900D92A630B107D9F721E0A6E0B1E0C2
S113009001C01D92AA30B207E1F70E9453000C94EC
S11300A062020C9400008CE090E00E94FA008EE35F
S11300B090E00E94BA007C01EC018C0104581F4FAF
S11300C0899199910E9471008CE20E940C0180E256
S11300D00E940C01C017D10799F7C7010E94D901EA
S11300E0FFCF0F931F93CF93DF93FC01AC01569581
S11300F04795569547959A01ABE7B4E10E943201C2
S11301008C011695079524E6209FC001219F900D30
S113011011248F01081B190B9A010E943201969534
S11301208795805D0E940C019801ADECBCEC0E94A7
S11301303201EC01D695C795D695C795D695C79546
S11301408C2F805D0E940C01CE01880F991FCC0F6B
S1130150DD1FCC0FDD1FCC0FDD1FC80FD91FC80159
S11301608C1B9D0B805D0E940C01DF91CF911F9130
S11301700F910895DF92EF92FF920F931F93CF9305
S1130180DF938C01880F991F0E9441017C01E2E0FA
S1130190F0E0D0E0DD24D394C0E0E330F10588F052
S11301A022E030E04D2DCF01B9010E941E01892BC0
S11301B009F44C2F2F5F3F4FE217F307A1F74423B5
S11301C049F0AD2FB0E0AA0FBB1FAE0DBF1DED93DC
S11301D0FC93DF5F8D2F90E00817190711F031961B
S11301E0DCCFC701DF91CF911F910F91FF90EF906A
S11301F0DF9008959093C5008093C400E1ECF0E093
S1130200808188608083E2ECF0E080818460808378
S113021080818260808308959091C00095FD0BC019
S1130220E0ECF0E0A3EFB1E01197F1F700C00000BB
S1130230908195FFF7CF8093C6000895AA1BBB1B3E
S113024051E107C0AA1FBB1FA617B70710F0A61BD2
S1130250B70B881F991F5A95A9F780959095BC01F3
S1130260CD010895A29FB001B39FC001A39F700D5B
S1130270811D1124911DB29F700D811D1124911DAA
S113028008950F931F93CF93DF938230910510F459
S113029082E090E0E0910801F091090120E030E073
S11302A0A0E0B0E0309719F14081518102811381BF
S11302B048175907C8F08417950769F4109731F067
S11302C012960C93129713961C9327C0009308015F
S11302D01093090122C02115310519F04217530763
S11302E018F49A01BD01EF01DF01F801DBCF2115FC
S11302F03105F9F0281B390B2430310580F48A814B
S11303009B816115710521F0FB019383828304C0F5
S11303109093090180930801FE01329644C0FE01C6
S1130320E20FF31F8193919322503109398328837B
S11303303AC02091060130910701232B41F420910A
S113034002013091030130930701209306012091AB
S11303500001309101012115310541F42DB73EB75B
S11303604091040150910501241B350BE0910601D5
S1130370F0910701E217F307A0F42E1B3F0B281797
S1130380390778F0AC014E5F5F4F2417350748F00A
S11303904E0F5F1F50930701409306018193919381
S11303A002C0E0E0F0E0CF01DF91CF911F910F9107
S11303B00895CF93DF93009709F481C0FC0132972D
S11303C013821282A0910801B0910901109781F45F
S11303D020813181820F931F209106013091070102
S11303E02817390751F5F0930701E093060167C018
S11303F0ED0120E030E0CE17DF0740F44A815B8155
S11304009E0141155105F1F0EA01F5CFD383C28372
S113041040815181840F951FC817D90759F48881E9
S11304209981840F951F0296918380838A819B8191
S1130430938382832115310529F4F0930901E09314
S113044008013DC0E901FB83EA8349915991C40F36
S1130450D51FEC17FD0761F480819181840F951FEE
S11304600296E90199838883828193819B838A839D
S1130470E0E0F0E012968D919C911397009719F0AB
S1130480FD01DC01F7CF8D919C9111979D012E5FA9
S11304903F4F820F931F20910601309107012817C7
S11304A0390769F4309729F4109209011092080170
S11304B002C013821282B0930701A0930601DF9158
S10B04C0CF910895F894FFCFD9
S10904C800000A012000FF
S9030000FC
